:020000040800F2
:10000000E8050020D50000086D0E0008F50D000879
:1000100000000000000000000000000000000000E0
:10002000000000000000000000000000710E000849
:1000300000000000000000006F0E0008750E0008B0
:100040000501000805010008050100080501000878
:1000500005010008FD02000805010008250300084D
:1000600000000000050100080501000881020008E9
:1000700005010008F90D000800000000050F000848
:100080000000000000000000000000000000000070
:10009000DD0E00080000000000000000050100085F
:1000A0000000000005010008000000000000000042
:1000B000250F0008050100080000000000000000F6
:1000C0000348854600F0A8F8004800475D12000884
:1000D000E80500200C4880F308880C480168090EE8
:1000E0000B4A914205D10B480B4901600B480C4962
:1000F00001600C4880470C480047FEE7FEE7FEE73A
:10010000FEE7FEE7FEE70000E8050020040000002F
:100110001F000000341002400100000000000140F8
:1001200000000000D90E0008C100000803460B4380
:100130009B0703D009E008C9121F08C0042AFAD29D
:1001400003E00B780370401C491C521EF9D2704723
:10015000421C0178401C0029FBD1801A704730B541
:1001600004460020034600E05B1C934203D2E05C9F
:10017000CD5C401BF8D030BD70B50446002903D0DB
:1001800000202022012310E0002801D00020C043DD
:10019000C046C0460DE02546D5408D4205D30D46EC
:1001A0009540641B1D46954040191546521E002D72
:1001B000F1DC214670BDF0B51FB40646002082B0C8
:1001C00005464024019100901BE0019922460F460C
:1001D000304600F043F8049A059B801A994110D3E9
:1001E00010461946224600F029F8361A8F41019729
:1001F000224601200021009F00F020F838184D41D0
:1002000000902046641E0028DFDC019B00982946F0
:10021000324607B0F0BD0000064C0125064E05E051
:10022000E36807CC2B430C3C98471034B442F7D317
:10023000FFF74AFFA02D0008C02D000810B5202AA6
:1002400004DB0146203A9140002010BD914020235C
:100250009C1A0346E3401943904010BD10B5202A74
:1002600004DB0846203AD040002110BD0B46D340A5
:10027000D0402024A21A91400843194610BD000026
:10028000F0B51B4908464438006880042ED501208B
:1002900042030B46403B1C6814431C60154A002473
:1002A000146061229200144DAF58BB00EE185F231A
:1002B0009B00F558002D19D0F6180B6883430B608E
:1002C00078237B430C4FFB187833CB6033684B604B
:1002D0000B6803430B60074DA96940230B43AB61D7
:1002E000802129603460B9584140B950F0BDC04602
:1002F00044000240084400405C00002080B51148E2
:100300000168C90707D0016801220A430260044856
:100310000068002800D080BD02F002F880BDC04611
:100320001C00002080B507480168C90608D501688F
:1003300010220A43026004480121016000F060F9C4
:1003400080BDC0461404014040000020F0B58AB0D2
:1003500001900A68002A00D1B5E00B465B4801997C
:10036000814201D0062000E00220009001240026F6
:1003700002943546099606930FE03143079E544890
:10038000C1601A681046E040361D641CAD1C099916
:10039000491C0991002800D195E0611E029808913E
:1003A000884002400592ECD007965F68122F0395B3
:1003B0005ED80121B940474A114259D00321A940D2
:1003C000019EB3688B43069AD268AA401A43B26072
:1003D0003A09089B9A407368834313437360069BF2
:1003E000C84309994D00F16801409A680495AA40F4
:1003F0000A43F26010213943122911D11C21079AB6
:1004000011400F228A40089BDB089B00F3181F6AEB
:100410009743069A12698A403A431A62069B5F68BC
:1004200032680240032138460840049DA84010432A
:100430003060F800079E039DA3D5524A106801273B
:100440000497384310600C2030400F228240089EF1
:100450008E43214977589743711805221207019E50
:1004600096420AD01D4A9642009E07D1049E05E09E
:100470000320A840C043019EB5E7002686403E43C6
:100480000E60134801685868C20302D5059E3143C7
:1004900001E0059EB1430E4A11605168820301D507
:1004A000314300E0B1430A4A51609168C20201D56C
:1004B000314300E0B143064A9160D168800200D523
:1004C0005BE7B1435AE70AB0F0BDC04600080050F0
:1004D000000401400600060008000140000400502E
:1004E000002A02D01822815070472822815070477C
:1004F000054800687047C0461C48007802490A68F1
:10050000101808607047C046E401002010B5D948B3
:10051000016840220A4302600024204600F008F8E7
:10052000002801D0012010BD00F022F8204610BDA7
:10053000B0B504467D20C0000C490978FFF71CFEC9
:100540000146D9480068FFF717FE00F039FC012585
:10055000032C09D8002807D10025E84321462A4664
:1005600000F02EF8CA4804602846B0BD0C000020F8
:1005700004480168012211430160110742680A43DF
:100580004260704734100240002809D41F210840FF
:100590000121814003480160BFF34F8FBFF36F8F8C
:1005A0007047C04680E100E0002805D41F210840C4
:1005B00001218140014801607047C04600E100E030
:1005C000002805D40322034693430C4A9A1806E0F8
:1005D0000F220240083A03239A43074BD2188007A0
:1005E000C00E8901C9B28140FF238340106898433F
:1005F000084310607047C0461CED00E000E400E0D6
:100600001B48016802229143016070471848016845
:1006100002220A430260704770B501225302124A57
:1006200014681C40650A114C24682C4002D01568DF
:100630009D43156015680326B543054315600C48B6
:1006400005680426B5430560012903D130BF002C9D
:1006500008D004E040BF20BF20BF002C02D01068AB
:100660001843106000BF70BD0070004020000140C2
:1006700010ED00E0F0B583B00290002844D00E46A3
:100680007C480068012101910840B04214D27949A8
:1006900008680125A84330430860774CFFF728FF1E
:1006A0000746744800682840B04205D0FFF720FF95
:1006B000C01BA042F5D924E00298006881077B4D59
:1006C00006D52968F0229143029A92680A432A606B
:1006D000C0071CD16748006801273840B04225D9BF
:1006E00064490868B8430860634CFFF701FF05469A
:1006F00060480068C00719D0FFF7FAFE401BA0420F
:10070000F6D9032003B0F0BD012003B0F0BD02987C
:100710004268012A0198294632D00C39032A35D083
:10072000022A76D10968890333D42DE00298006843
:1007300041075E4C07D50721090222688A430299C6
:10074000C96811432160000708D50720C00221684D
:10075000814302980069C0000843206021680807AF
:10076000820F46487A441279520097440156745DCC
:1007700038042146083909680904490F88406AE0AD
:100780000C390968490704D403B0F0BD0968890130
:10079000FAD529680324A14311432960FFF7A8FE75
:1007A00007460298406803280194334C20D0022861
:1007B00029D001280AD128680C210140042989D0B8
:1007C000FFF796FEC01BA042F5D909E02868000794
:1007D000800F00D17EE7FFF78BFEC01BA042F5D94A
:1007E000019803B0F0BDFFF783FEC01BA042F7D80D
:1007F00028680C2101400C29F5D16BE7FFF778FE42
:10080000C01BA042ECD828680C2101400829F5D172
:1008100060E709688905B7D5BBE720460C38006852
:10082000C00612D5174816E08A02120F144B9A5CC4
:100830000902890F491C2368DB0309D420460C38C0
:100840000068C00603D4104802E00F4803E00D48DA
:100850005043FFF791FC21680906090F0B4A515CD0
:10086000C840114908600A480068FFF761FE03B0FC
:10087000F0BDC046002002408813000000127A003C
:10088000D52C000800093D000024F400B82C000815
:100890001000002004480068044909684905490F10
:1008A000034A515CC8407047040000200C1002400D
:1008B000CD2C0008F0B589B0002856D0624EF16802
:1008C0000C220A400692012105910904F76804915F
:1008D0000F4007900078C00710D00698082806D06F
:1008E00006980C2800D0B3E0002F00D1B0E03068AB
:1008F000800303D507984068002850D007980078F7
:10090000800735D407980078C0064BD40798007844
:10091000000763D407990878400700D4BCE101229E
:100920001107B06B0840029002D1B06B0843B0636E
:10093000019103921402454F3868C00500D401E1CB
:1009400007988068002800D170E1052109028842DB
:1009500000D182E1A042039A00D183E1306DA0432F
:1009600030659102306D88437EE1012009B0F0BD11
:10097000079BD868810604D5316820221143316075
:1009800090430699042904D006990C2976D1002FAA
:1009900074D13168002836D10422114033D0059833
:1009A00009B0F0BD0698002800D17DE030680799B5
:1009B0008969002900D1B2E001210A0210433060A8
:1009C0004C02FFF795FD05463068204200D0CAE092
:1009D000FFF78EFD401B0228F6D9F1E0306D079934
:1009E0004969002900D189E0012108433065FFF7FA
:1009F0007FFD0546306D80078CD4FFF779FD401BE5
:100A00000228F7D9DCE01F21090272688A431969BC
:100A10000902114371603168092291430143316039
:100A2000F1680807820FDE485200C0467A44928877
:100A3000520097440300C800A301CE007068000470
:100A4000410F0498884099E1001002400070004076
:100A50000798406805994C040499884209D00521FB
:100A60000904884200D08FE0059880043168014372
:100A70003160306804990843306095E0316800289F
:100A800000D1B8E00922914301433160FFF730FD06
:100A900005463068400700D5BEE0FFF729FD411B41
:100AA00003200229F5D978E130688005079B03D53A
:100AB0009869002800D172E70720400371688143DC
:100AC000186A01437160FF21090672688A43D96977
:100AD000090689187160400B04998140F06800068E
:100AE000000FB34A105CC140B2480160B2480068D0
:100AF000FFF71EFD002800D04FE107E701218843E2
:100B00003065FFF7F5FC0546306D800700D401E73E
:100B1000FFF7EEFC411B03200229F5D93DE101213D
:100B20000A02904330604C02FFF7E2FC0546306851
:100B3000204200D1EAE6FFF7DBFC411B032002293B
:100B4000F5D92AE1386820433860FFF7D1FC054623
:100B50003868204200D0F3E6FFF7CAFC411B0320AF
:100B60006429F5D919E10720400371688143079A88
:100B7000106A08437060FF20000671688143D069E5
:100B8000000640187060C1E63168049A91433160F4
:100B900031681140089108990599890432688A439F
:100BA0003260002800D1D7E0FFF7A2FC054630688C
:100BB000204200D0A2E6FFF79BFC401B6428F6D938
:100BC000032009B0F0BD3068C00600D4A5E0764827
:100BD000D4E08A02120F734B9A5C0902890F491CF8
:100BE000F368049C234200D0C5E03068C00600D5FD
:100BF000C0E06E48BFE0012081433160FFF778FC20
:100C000005463068400700D47CE6FFF771FC411BC5
:100C100003200229F5D9C0E01F200002716881433A
:100C2000079800690002084370606BE6306DA043CE
:100C30003065039A9002316D8143316554025F4FF4
:100C4000FFF756FC0546306D20421DD0FFF750FCE3
:100C5000411B0320B942F6D99FE0039A9002316DFF
:100C600001433165306D204330655402534FFFF727
:100C70003FFC0546306D204206D1FFF739FC411B91
:100C80000320B942F6D988E002980028079903D1D9
:100C9000B06B019A9043B0634C6A002C1BD006984D
:100CA0000C281BD1012C00D179E6F068049A02408F
:100CB000079B996A8A4200D071E60F21890401409E
:100CC000DA6A914200D06AE6032189050840196B6F
:100CD0008842059861D1002009B0F0BD01200106CD
:100CE00032688A4332604706FFF702FC0546022C51
:100CF00009D13068384212D0FFF7FAFB411B0320BC
:100D00000229F6D949E030683842E4D0FFF7F0FB19
:100D1000411B03200229F6D93FE024482EE0FD20A4
:100D20000004F1688143079B28330DCB084310432F
:100D30001843F0602C48401C316801433160FFF7D4
:100D4000D7FB044630683842C5D1FFF7D1FB011B01
:100D500003200229F6D920E0FFF7CAFB05463068D8
:100D6000204200D1CAE5FFF7C3FB411B03206429E1
:100D7000F5D912E00C485043FFF7FEF9F168090677
:100D8000090F0B4A515CC8400A4908600A480068CC
:100D9000FFF7CEFB002800D1B4E509B0F0BDC04696
:100DA00000127A00D52C000800093D000024F40050
:100DB000B82C000804000020100000208813000058
:100DC000401E010E01D0012070470749074A5060BC
:100DD000074803680B400321890759180160002068
:100DE0009060072111607047FFFFFF0010E000E0F6
:100DF00020ED00E0FEE7000010B51848011F09686B
:100E000089072AD5016802220A43026005200007EB
:100E10000124214600F0F8F911490028084600D0C5
:100E200010480268521C0260086880084B280AD3E8
:100E300001F084FA0A48002101600A4801600A486A
:100E40000460FFF7DDFB074C20680B2805D301F099
:100E500075FA034800210160216010BD047C004048
:100E6000480000205000002044000020FEE77047AA
:100E70007047000080B5FFF73FFB1248016800296A
:100E800008D00168491E01600068002802D10E48A0
:100E9000042101600D480168002908D00168491E3D
:100EA00001600068002802D107480221016008485B
:100EB0000168491C016000680649884201D3FFF7B8
:100EC0009FFB80BD4C000020180000502C0000202B
:100ED0003C000020E90300007047000080B5544842
:100EE0000169C9070CD0002101610121C943C26811
:100EF0000A40C26002680A400260444800688047B5
:100F000080BDC04680B506480168C90706D00021EB
:100F10000160774801210160FFF772FB80BDC04688
:100F20001000004070B516480168890617D52D21BC
:100F3000CC00144D2959806868541348134900F0B7
:100F400041F82859411C2951114B4B430122D341EF
:100F5000104EB34204D9782901D10020285170BD28
:100F60005B2189006A5040191D382F21C900685043
:100F7000FFF746FB00F04CF829597829EFD1ECE750
:100F80001C4400405C000020980800005126000826
:100F9000EFEEEEEE8888880810B5094A93680124C0
:100FA0001C439460002907D000231C46C35C1370C7
:100FB000641CE3B28B42F9D31068C0B210BDC046C6
:100FC0000030024070B50446104801601420FFF75D
:100FD000DBFA0125E843164EF1680140F160316803
:100FE0000140316000207062F462716929437161CF
:100FF0003169C907FCD030611420FFF7D5FAF068D9
:101000002843F06030682843306070BD2000002025
:1010100080B51420FFF7B8FA0120C0430449CA681C
:101020000240CA600A6802400A600020486280BD2F
:101030000008014081B00120000308490A6802430A
:101040000A6009680140009100980548102101607C
:10105000FF2181600721C16001B07047301002405C
:101060000830024010B5002807D004467D20C0009B
:1010700000F004F8641E2004F8D110BDF0B581B072
:1010800004460F20FFF780FA0127F943BD07E868FF
:101090000840E8602868009108402860EC626869B0
:1010A000384368612869C007FCD000262E610F20F4
:1010B000FFF77AFAE8683843E86028683843286020
:1010C0000B4C26602068002808D1FFF79FFA01200A
:1010D0000146FFF7A1FA20680028F6D0E8680099D9
:1010E0000840E86028680840286001B0F0BDC046AC
:1010F0005800002080B582B0019001A8012101F0C4
:10110000C1FA019802B080BDF0B58BB000240A94FA
:1011100009943A48016801221143016001681140B5
:101120001546029205910599016802220392114326
:10113000016001681140059105990168042204923B
:1011400011430160006810400590059808942C48F0
:1011500007901020069005200190070706AE38463C
:101160003146FFF7F3F8099408940795082000909A
:10117000069038463146FFF7E9F809940894079538
:10118000039D06951F483146FFF7E0F8099408943F
:1011900002980790069538463146FFF7D7F809942C
:1011A0000894029D07950498069038463146FFF74B
:1011B000CDF80994089512480790069538463146AF
:1011C000FFF7C4F8039D0F4885620098B862049841
:1011D000B861BD610726304629462246FFF7F0F97F
:1011E0003046FFF7E1F9019E304629462246FFF7D7
:1011F000E7F93046FFF7D8F90BB0F0BD2C100240EC
:1012000000002110000400500069084070470000F1
:1012100080B50121C8070E4A1368034313600D48C7
:10122000002202600246083A02231360021F0523CF
:101230005B02136002680A4302600168C907FCD0C0
:10124000054981600D2000210A46FFF7B9F980BDEC
:1012500038100240107C004010270000A2B00BA8FC
:10126000002606710B96FFF751F91A9619961896F3
:1012700017961696159614961396119610960F9625
:101280000E960D960324E002F7490A688243012076
:101290001590C302D2180A601C9602251B95129560
:1012A0001021169181051E9180041D9012A8FFF750
:1012B00001FB002803D0EFF3108072B6FEE7119611
:1012C00010960F960E940F200D900DA80124214624
:1012D000FFF7D0F9002803D0EFF3108072B6FEE7D5
:1012E0000796FFF711FF01F03BF801F05DF8FFF7FB
:1012F0008FFF00F0B1FFFFF79DFEDC4E30461C383B
:101300000168DB4A11400160E10403680B4303609C
:10131000283E3068104030602046FFF7A3FE7D2055
:101320000A90C100089118313046FFF76DFFD1498E
:101330000F684A6806924969059109BACE4E7170E4
:101340003A0E32700A0E32710A0CF270090AB1704C
:10135000002800D02C46C94D2C70C94812C80BA8D3
:10136000017004710A0A42700A0C8270090EC17081
:101370000521FFF711FE210ACCB20990001B414262
:10138000414104912878022830D101F0A9F8BD48E4
:1013900001F000F9BC4801F0FDF8BC483946069A56
:1013A000059B01F02FFA3078069070780590B078A0
:1013B0000390F778357905213046FFF7EDFD00976A
:1013C00001950290B2A00699059A039B01F01AFAC2
:1013D0000BA8017842788378C57800790095019050
:1013E000B9A001F00FFAC3A001F0D4F85020FFF724
:1013F00039FE0998A042079C9C4F9F4801D10BA938
:1014000000E0C24900F0F4FD12A8411C0591801CC7
:1014100006900A98800003903BE00560039E3046EA
:10142000FFF720FE25603046FFF71CFE8F480A9D1F
:10143000056007603046FFF715FE256027603046DF
:10144000FFF710FE8948056007603046FFF70AFE87
:10145000256027603046FFF705FE844D2F60089811
:10146000FFF700FE2760864812C80BA804710170C0
:101470000A0EC2700A0C8270090A41700521FFF73A
:101480008BFD210AC9B2401A414241410491079C97
:101490002F469F4D9F4EA049A04A0498C00700D1F7
:1014A000B7E076480078012800D0CCE00020199001
:1014B0001890179016901590149013900A9012900F
:1014C0000DA89749018000F0ABFF0DE00BA800F0DC
:1014D00095FE002800D18FE004208F4938600A2053
:1014E000086000208F4908602868002800D0AFE01D
:1014F000FFF78CF801200146FFF78EF85B20800093
:10150000315800292CD00A9C345012A886490180F9
:101510002F20C00031581E220698FEF707FE804D8E
:10152000824E0DAF3D800BA812A920223B4600F051
:1015300007FE002803D039886418B442F1D300288C
:1015400002D00420744904E000207649086002209B
:101550007749079CFB4F6E4D6E4E38600A2008603D
:1015600017200001315800293FD00024345012AF19
:101570006D4838802F20C00031585D2032468600EB
:10158000955906982A46FEF7D1FD0DABF148188013
:10159000A81CC2B20BA8394600F0D2FD002819D011
:1015A0000DA805880DAFEB483880F248805D801C9F
:1015B000C2B20BA812A93B4600F0C2FD002804D01D
:1015C00039886D18E4498D42ECD3002802D00420FC
:1015D000E44903E0E84804600220E549D94F386057
:1015E0000A200860079CDE4DE24EE3480068089937
:1015F000884200D878E769E70BA800F0D7FC0028FC
:10160000DB4900D0D749002801D0042066E702203A
:1016100064E73C46103C2E460425256002202060ED
:101620003068002808D13D600A2008601046FFF7A6
:1016300019FDCD4ACB49F3E70798086025600446B9
:101640003546CC4E08E0286800280AD0079C03E005
:1016500000F0CCFEC349C44A2868002800D11CE72A
:10166000A5E0002475E0C04600700040280000504E
:10167000FFFFC3FF5000F81F24000020540000208B
:1016800000000808082D0008262D0008842D0008F9
:1016900064657669636520616464726573733A207A
:1016A00025303278202530327820253032782025B8
:1016B000303278202530327820286372633D25301F
:1016C0003278290A00000000706169726564206147
:1016D0006464726573733A20253032782025303285
:1016E0007820253032782025303278202530327825
:1016F0000A0A0000726164696F207278202D2D3E05
:101700002073657269616C2074780A00C82C000827
:10171000440000205C0000204C000020DC0500009C
:10172000307500003C000020DABB0000400D0300D3
:101730002C0000200BA800F061FD8B4A02208C4990
:1017400038600A200860002486492868002800D0F4
:101750007CE70DAD8548288012A821A91FAA2B4639
:1017600000F0A4FC2988890A6418002803D07C4D65
:101770007C497D4A16E012A80078DA280DD121A80C
:101780000078811E069800F07DFF022038600A2054
:101790007749086012A800780024F528704D714937
:1017A000714AC7D008988442CFD90420C8E72C607A
:1017B0000DA804710D941FA82646012707806448D0
:1017C00000F0C6FA0A94604D07E001275E4D099EBD
:1017D0006D480A99814200D9B0E0002F68D012A864
:1017E00000240470F0B2052801D2761C0AE004201F
:1017F00054490860022008600A205A4908605C4980
:1018000008600026287800F027FC002828D00996D8
:101810001FAB1D885948188012A820A921AA00F0E2
:1018200045FC064628460899FEF7A6FC0A990918C1
:101830000A91002EC9D112A80078434D29780129B8
:10184000099E01D1CE2803D00229C1D17E28BFD163
:10185000059E304600F0A0FC002811D00746B6E7F0
:101860000DA800F073FB07460028B1D128780228A4
:10187000AED10DA80178434800F0C4FF2746A7E782
:1018800030790DA908713078717809020818B1789B
:10189000F27812025118090408180D9028780228CD
:1018A00004D10DA80178364800F0ACFF27468EE73A
:1018B0000DAD05212846FFF76FFB29790A91EA78DB
:1018C000AB786E782C7825490D68ED07FCD10D4674
:1018D0000C3D2E4F2F602E4F2F6035022C191B040C
:1018E000E31812069A18194B1A60164D0B461A681F
:1018F000D207FCD100020A994018144948601868C0
:10190000C007FCD118461438016801220A4302605E
:101910000DA800F01DFA2C46103C04262660022774
:101920002760C820FFF79EFB07480078022828465A
:101930000A96354600D170E53D466EE5079C014F9D
:10194000A7E5C04628000050540000200000080809
:10195000C82C000830750000400D0300182002401C
:10196000440000204C000020DC050000FEFF0000C9
:101970002C0000205C0000203C000020E8FD00005E
:10198000652D0008452D0008BFD40100EFCDAB89BF
:101990000504030280B5ED488069804780BDC046DC
:1019A000B0B582B001ACE2202070E84D28698047D4
:1019B0002A68012120469047E868804702B0B0BD00
:1019C00070B582B001ACFF20607060202070DF4EE7
:1019D00030698047B3686D46022220462946984701
:1019E000F0688047687802B070BDC046F0B589B035
:1019F00005460490F64EB0698047F0680190804734
:101A000028786549087007AD687020202870306913
:101A100003908047B368029308AE022728463146F8
:101A200006963A4605979847019CA0470498407847
:101A300068702120287003988047284631463A462E
:101A4000029FB847A04704988078687022202870C9
:101A5000039EB04728460699059C2246B847019F39
:101A6000B8470320687023202870B047284606999D
:101A70002246029EB047B847049CE0786870242054
:101A800028700398804728460699059AB047B847BA
:101A90002079687025202870039EB0472846069C50
:101AA0002146059A029B9847B84704984079687088
:101AB00026202870B04728462146059F3A46029EB8
:101AC000B04701988047049C207A687031202870C4
:101AD00003988047284606993A46B04701988047C0
:101AE000607A687032202870039FB84728460699AC
:101AF000059AB047019CA047049EB07A68703320D5
:101B00002870B8472846069F3946059A029B984791
:101B1000A047F07A687034202870039EB0472846AA
:101B20003946059C2246029B9847019FB847049876
:101B3000007B687035202870B0472846069E3146E5
:101B40002246029B9847B847049C607B6870362009
:101B500028700398804728463146059F3A46029BE5
:101B60009847019EB047A07968703C202870039C7C
:101B7000A047284606993A46029FB847B0470498BE
:101B8000C07968703D202870A04728460699059ABC
:101B9000B847B04709B0F0BD18000020F0B589B0D3
:101BA00006ACFF20607000202070E54D2869019090
:101BB0008047AB6802932F4607AD04950222059239
:101BC000204629469847FE68B0476878039008AFDA
:101BD000E2203870019DA847D948026801213846A3
:101BE0009047B04740206070272020702F46A847BC
:101BF00020460499059A029DA847B047D0488069BD
:101C00008047032003990843607020202070B84764
:101C100020460499059AA847B047C94840698047BB
:101C200009B0F0BDF0B585B00191044602AE612067
:101C30003070C34F3D69A8473A680121304690474C
:101C40007A68204601999047FE68B04703AC40206F
:101C5000607027202070A847BB6804A90222204694
:101C60009847B04705B0F0BD70B582B0B44EB069CA
:101C700080476C4640206070272020703069804784
:101C8000B36801AD0222204629469847F068804794
:101C9000287802B070BDC046F0B583B00D4604464A
:101CA000012917D828460A30202101436E46317099
:101CB000A34800698047A248076801213046B84719
:101CC00005212046B8479E48C0688047002D14D0A3
:101CD00003B0F0BD207801AC60700A3520202843A5
:101CE0002070974D28698047AB6802A902222046E0
:101CF0009847E868804703B0F0BD92480522214626
:101D0000FEF714FA03B0F0BDF0B581B004468B497C
:101D10000522FEF724FA002816D06E4630203070D7
:101D20008648052521462A46FEF700FA84480069C0
:101D300080478348076801213046B8472046294636
:101D4000B8477F48C068804701B0F0BDEC2C000860
:101D5000F0B581B0044679490522FEF700FA002863
:101D600016D07648052521462A46FEF7DFF96E464D
:101D7000302030707248006980477148076801213F
:101D80003046B84720462946B8476D48C068804766
:101D90006C4905222046FEF7E2F9002816D0694872
:101DA000052521462A46FEF7C1F96E462A203070E5
:101DB0006348006980476248076801213046B84798
:101DC00020462946B8475E48C068804701B0F0BD4C
:101DD000EC2C000870B582B001AC002020706D467C
:101DE000FF202870564E30698047B368012228468C
:101DF00021469847F0688047207802B070BDC04601
:101E000070B582B04E4EB06980476C46302060702D
:101E10002720207030698047B36801AD0222204638
:101E200029469847F0688047287802B070BDC046C0
:101E3000F0B58DB007920691064640490522FEF79F
:101E40008EF9002816D03D48052431462246FEF77B
:101E50006DF908AD3020287039480069804738484E
:101E6000076801212846B84730462146B84734481C
:101E7000C0688047334905223046FEF770F90028D4
:101E800018D03048052431462246FEF74FF908ADF8
:101E90002A2028702A4F3869059080473A68012126
:101EA00028461546904730462146A847F868074619
:101EB000804704E02248C7680169059105680395D9
:101EC0001F488069804709ACE1202070059EB0471B
:101ED000012104912046A8473C46B8470AAF30206C
:101EE000787027203870B047154885680BA9029193
:101EF000022201923846A847A04713480078FC21E7
:101F00000140881C787020203870B047384602990C
:101F1000019AA8472546A0470CACA0202070B047E6
:101F200020460499039CA04706980799A047A84714
:101F30000348406980470DB0F0BDC0463500002021
:101F4000EC2C0008300000201800002070B58CB088
:101F5000044602A8451C002605E00198301886B208
:101F6000F0097D281FD27D20400101AB188002A816
:101F70000AA90BAA00F09AF80228EED000280FD187
:101F800002A80BA909780029E7D00078AC28E4D191
:101F9000052220462946FEF7C9F800200CB070BD86
:101FA00001200CB070BD03200CB070BDF0B58BB03B
:101FB00000240E4E274604E00098381887B2B74236
:101FC0000FD27D2040016B46188001AD09A90AAAF5
:101FD000284600F06BF80028EED12878F528EBD1E0
:101FE00000E0012420460BB0F0BDC046C05D0000FB
:101FF000B0B582B00D4604461648FFF7F7FC2846F8
:10200000FFF782FE00212046FFF746FE0121204611
:10201000FFF742FE2078401C01AC207002212046D0
:10202000FFF73AFE0198401C207003212046FFF77D
:1020300033FE0198401C207004212046FFF72CFE3F
:102040000198401C207005212046FFF725FE02B0B4
:10205000B0BDC046DE2C000810B582B0012802D009
:102060003120C04300E07E206C462070601C624935
:102070000522FEF75BF80C4806222146FFF7D8FE42
:10208000714800F079FBFFF7A5FEC10603D50324D4
:10209000800604D502E00124800600D50024FFF765
:1020A000AFFE204602B010BDC82C0008F0B583B0CA
:1020B0001F4601910090002B029201D03C8800E065
:1020C000614CFFF76BFD204600F056FB0546002FE4
:1020D00000D03D805F4800270760C8201749FEF701
:1020E00071FFFFF777FE0646400603D4A54216D0DF
:1020F000012415E0FFF764FC01460198002800D098
:102100000170029A002A02D03007400F1070212976
:102110000BD3FFF745FCFFF7A7FD01270AE00224D8
:10212000FFF7A2FD204603B0F0BD0098FFF77AFD4F
:10213000FFF730FC384603B0F0BDC0464D22000822
:10214000F0B581B01D46002B01D02C8800E03E4C3C
:10215000404B1E68002EFCD0FFF76AFE204600F0C0
:102160000BFB0646FFF736FE0746FFF749FE002D3C
:1021700000D02E80B80606D4F80607D4A64208D0B0
:10218000012001B0F0BD002001B0F0BD032001B07E
:10219000F0BD022001B0F0BD70B582B004466846C3
:1021A000AC210170401C14490522FDF7BFFF2948EE
:1021B00001680029FCD0694606222046FFF738FE58
:1021C000214C204600F0D8FA0546FFF703FE0646EC
:1021D000FFF716FEB00606D4F00607D4A54208D0D5
:1021E000012002B070BD002002B070BD032002B01B
:1021F00070BD022002B070BD24000020F0B581B097
:102200006946F5220A7013490A68002AFCD069461B
:1022100001242246FFF70CFE0B4D284600F0ACFAD5
:102220000646FFF7D7FD0746FFF7EAFDB80605D4D7
:10223000F80605D4AE4204D1022402E0002400E0F6
:102240000324204601B0F0BD50C300000148012125
:10225000016070470800002010B586B0012000031F
:102260004F490A6802430A60002405940320049041
:10227000039402200290E02001900520000701A9AC
:10228000FEF764F805480460C321890001604460DA
:10229000016840220A43026006B010BD00300140D0
:1022A00000290ED01D4A13689B07FCD503781371D3
:1022B0001368DB07FCD053680370401C491E0B04F5
:1022C000F1D1704710B581B0002911D0134A1368BD
:1022D0009B07FCD5037813711368DB07FCD05368A8
:1022E0006C46237013682370401C491E0B04EED10A
:1022F00001B010BD10B5002A0FD0084B1C68A40710
:10230000FCD504781C711C68E407FCD05C680C7078
:10231000491C401C521E1404F0D110BD083001406D
:1023200080B50D48012101600D20FEF73DF90B48F5
:10233000016804220A43026080BDC04680B5064899
:10234000002101600D20FEF71FF9044801680422F6
:102350009143016080BDC0461C000020107C0040FD
:1023600080B50F48016804220A4302600D48024606
:10237000103A0021116002460C3A1160202282615D
:10238000194AC26142680123134343600268D207BD
:10239000FCD0016014200A46FEF712F980BDC04649
:1023A000341002401008014080B51C480168012229
:1023B000114301600B480346103B0021196003469E
:1023C0000C3B196020238361074BC36143681343AF
:1023D00043600268D207FCD001600F200A46FEF776
:1023E000EFF880BD10000040FFFF000080B5654899
:1023F0000021016041608160FEF70AFE01200107B3
:10240000054A1160BFF34F8FBFF36F8F400403493C
:102410000A6882430A6080BD80E100E03810024013
:10242000F0B589B000250895079501246004294F6F
:10243000F9680143F96006940595600201900490E3
:1024400005200007009004A90291FDF77FFF38687E
:10245000042630433860386830400390079506956D
:102460000594A703049703981B480299FDF76EFF94
:10247000194839462246FEF733F80896032007909C
:10248000069402200590A002049000980299FDF79E
:102490005DFF3C490D60019824300860E126370259
:1024A000FEF7F8F9C0197102FDF766FE3549C860FC
:1024B0001120000348608D600B4608480168FF2228
:1024C0009143016020073249086018682043186072
:1024D00009B0F0BD2C100240000800501CE400E0E0
:1024E000F0B589B001267204029225488168114333
:1024F000816001683143016000683040039004202E
:10250000089003200190079000270697122005905D
:102510007002049003980520040704AD2046294664
:10252000FDF714FF0797069701980590B0020490F5
:1025300020462946FDF70AFF12490F60082008606F
:10254000E1252C02FEF7A6F900196902FDF714FE39
:102550000C4BD860029858609F60B0037849486679
:1025600009480860FF20000608490A6882430A609B
:10257000F0020749086018683043186009B0F0BDE0
:1025800030100240004400409210000008E400E0D7
:1025900000E100E0F0B583B00546FDF7D9FD7828ED
:1025A00028D8044661208000644A029010588100B7
:1025B00051185F229700C919614E7268012AFCD038
:1025C0000A681319782BF8D87821019148435B49A0
:1025D00008188018783029462246FDF7A7FD574A8B
:1025E000029D505980001018C1590919C1517068D5
:1025F000002801D003B0F0BD316801208143316073
:10260000010314463246403A13680B431360635982
:1026100099006118CA5972604A4A14460834B46075
:10262000019C5C43454B1B197833F36033680343CB
:102630003360136840241C431460183A80231360ED
:102640000022CA513D4A51594140515103B0F0BD99
:10265000B0B5FDF7D5FF17200001384D01212950F5
:102660002D20C0002C58002129501E212046FDF7A6
:1026700083FD5D2080002950601A28182F21C90091
:102680006850B0BDF0B583B00C46782926D8014615
:1026900061208000294B0290185882009A185F230D
:1026A0009F00D219264E7368012BFCD013681D19A8
:1026B000782DF8D8782201925043204D2818C01860
:1026C00078302246FDF732FD029AA858800028187B
:1026D000C1590919C1517068002801D003B0F0BD7B
:1026E0002B46316801208143316001031546324693
:1026F000403A1C4613680B431360635999006118F4
:10270000CA5972600F4A14460834B460019C5C4395
:102710000A4B1B197833F360336803433360136843
:1027200040241C431460183A802313600022CA51CD
:10273000024A51594140515103B0F0BD5C000020A4
:1027400044000240204400400148022101607047DB
:10275000180400500148022101607047280400500D
:102760000148082101607047180000500148082105
:102770000160704728000050F0B583B004461F4D3B
:102780000020029028600F20FDF7FEFE0126F04396
:10279000B707F9680140F960396801403960019470
:1027A000FC627869304378613869C007FCD00298D0
:1027B00038610F20FDF7F8FEF8683043F86038689C
:1027C000304338600E4C029820602868216801432D
:1027D00006D1FDF71BFF01200146FDF71DFFF4E7C1
:1027E000786A3968B14339602968002903D12168C2
:1027F000002900D0019880B203B0F0BD4000002055
:10280000580000200FB410B503A9044B044A0298E5
:1028100000F018F810BC08BC04B01847F510000808
:102820000000002002E008C8121F08C1002AFAD1E7
:1028300070477047002001E001C1121F002AFBD140
:1028400070470000FFB591B00F460546002606E030
:1028500025280AD0149A139990476D1C761C287865
:102860000028F5D1304615B0F0BD002400940121B8
:10287000F34A029400E004436D1C2B780846203B89
:1028800098401042F7D128782A280ED002212878C3
:102890000246303A092A15D8009A0A235A43303A98
:1028A00080180C436D1C0090F1E701CF00900028C8
:1028B00005DA0120400304430098404200900220C2
:1028C00004436D1C28782E2815D104200443687811
:1028D0006D1C2A280AD101CF6D1C02900BE00299D1
:1028E0000A225143303940186D1C02902878014665
:1028F00030390929F3D928786C2810D006DC4C2807
:102900001AD068280ED06A2817D104E0742813D092
:102910007A2812D110E00120400504430CE0012187
:10292000090501E0032109050C436978814203D1BF
:102930000120000524186D1C6D1C287803906E285A
:102940001ED00CDC632831D004DC00288AD0582843
:1029500011D1B2E064287BD069280CD178E07328CB
:102960002DD004DC6F2870D0702804D1A7E0752822
:102970006CD078286BD0149A13999047761C62E03B
:102980006002400F022807D003280AD004283868C4
:102990000AD006603F1D56E03868F11706604160B6
:1029A000F8E738680680F5E70670F3E73878694697
:1029B00008740020487404A80390012003E03868DC
:1029C00003900020C0433F1D61070FD5002101E0A7
:1029D0000199491C029A0191914213DA8142F7DB75
:1029E000019A0399895C0029F2D10BE0002101E0F2
:1029F0000199491C01918142FADB019A0399895C92
:102A00000029F5D101990098139A401A00902146A7
:102A1000149B00F03BF901998019461807E00398D0
:102A200003990078491C0391149A139990470198CF
:102A3000401E0190401CF2D12146149B139A00982D
:102A400000F014F986196D1C09E741E033E034E029
:102A50000A200021049005916002410F022905D04F
:102A600001CFC2179446032905D007E0FF1DFF08D8
:102A7000FF0003CF06E000B2C2179446042902D13A
:102A800040B2C1178C4600226146944506DA0A46D8
:102A90000021404291418C462D2102E0210504D5C0
:102AA0002B216A461176012103E0E10701D02021A4
:102AB000F7E7019154E00A200BE0102009E0102014
:102AC000049000210420044308200591029003E0B3
:102AD00008200021059104906002410F022905D0D1
:102AE00001CF00229446032906D006E0FF1DFF080F
:102AF000FF0003CF8C4603E080B2042900D1C0B2AE
:102B00000021019121072BD50399702906D0049A41
:102B10001021059B4A401A4305D00EE040216A4629
:102B20001176012108E06146014306D030216A4652
:102B300011760399517602210191049A0821059B8F
:102B40004A401A430CD16146014301D1610707D5C0
:102B500030216A461176012101910299491E0291A4
:102B60000399582904D037A103910FA90F910DE0C3
:102B700039A1F9E76146059B049AFDF71CFB039B0D
:102B80008C469B5C0F9A521E0F9213706146014354
:102B9000F0D10F9807A9081A20300390600704D5D8
:102BA000012000048443029801E00120029003996F
:102BB000884201DD401A00E000204118029001988F
:102BC00009180098401A0090E00306D42146149B8F
:102BD000139A009800F05AF886190020049008E033
:102BE00006A9085C149A139990470498401C761C17
:102BF000049001998842F3DBE0030CD52146149B35
:102C0000139A009800F042F8861904E0149A3020D4
:102C100013999047761C0299481E02900029F5DC12
:102C200008E00F980F990078491C0F91149A139996
:102C30009047761C0399481E03900029F1DCFBE6BF
:102C40000928010030313233343536373839616282
:102C50006364656600000000303132333435363746
:102C6000383941424344454600000000F8B5044667
:102C700000251E461746880404D405E03946202066
:102C8000B0476D1C641EF9D52846F8BDFFB5044653
:102C9000002581B01E46C80301D5302700E020275B
:102CA000880404D505E038460399B0476D1C641EBE
:102CB000F9D5284605B0F0BD000000000000000076
:102CC0000102030406070809A0A0A0A0A0000000BC
:102CD0000001020304030406080C101820300C3F06
:102CE0003F0864023F04000000000000C522000805
:102CF000A1220008F5220008612700086D270008BE
:102D000049270008552700080A475058206578745D
:102D1000656E6465722070726F746F74797065206F
:102D200076302E380A006275696C74206F6E2053FD
:102D3000657020203320323032312032303A33383F
:102D40003A35380A00676F7420616E6E6F756E6376
:102D50006520726573706F6E73652066726F6D3A71
:102D60002025780A0073656E7420616E6E6F756E33
:102D7000636520726573706F6E736520746F3A209F
:102D800025780A0063686970205549443A20253047
:102D90003878202530387820253038780A0000002F
:102DA000C02D0008000000201800000024280008A2
:102DB000D82D000818000020D00500003428000895
:102DC00000000000000020000100000001000000E1
:082DD0000400000000000000F7
:04000005080000C12E
:00000001FF
